{
  "_format": "hh-sol-artifact-1",
  "contractName": "InterestRate",
  "sourceName": "contracts/library/InterestRate.sol",
  "abi": [
    {
      "inputs": [],
      "name": "BASE_RATE",
      "outputs": [
        {
          "internalType": "uint256",
          "name": "",
          "type": "uint256"
        }
      ],
      "stateMutability": "view",
      "type": "function"
    },
    {
      "inputs": [],
      "name": "RATE_MULTIPLIER",
      "outputs": [
        {
          "internalType": "uint256",
          "name": "",
          "type": "uint256"
        }
      ],
      "stateMutability": "view",
      "type": "function"
    },
    {
      "inputs": [],
      "name": "UTILIZATION_THRESHOLD",
      "outputs": [
        {
          "internalType": "uint256",
          "name": "",
          "type": "uint256"
        }
      ],
      "stateMutability": "view",
      "type": "function"
    }
  ],
  "bytecode": "0x61010f610053600b82828239805160001a607314610046577f4e487b7100000000000000000000000000000000000000000000000000000000600052600060045260246000fd5b30600052607381538281f3fe730000000000000000000000000000000000000000301460806040526004361060475760003560e01c8063181d038814604c57806341910f90146066578063558c015e146080575b600080fd5b6052609a565b604051605d919060c0565b60405180910390f35b606c609f565b6040516077919060c0565b60405180910390f35b608660a4565b6040516091919060c0565b60405180910390f35b600481565b600281565b605081565b6000819050919050565b60ba8160a9565b82525050565b600060208201905060d3600083018460b3565b9291505056fea2646970667358221220dcd1d4a2da3fea9103ca4c36cd865a6407630e1f0679aaf3b531cbeff1e25a1f64736f6c63430008130033",
  "linkReferences": {},
  "deployedLinkReferences": {}
}