{
  "_format": "hh-sol-artifact-1",
  "contractName": "SimpleLendingProtocol",
  "sourceName": "contracts/SimpleLendingProtocol.sol",
  "abi": [
    {
      "inputs": [
        {
          "internalType": "address",
          "name": "_token",
          "type": "address"
        }
      ],
      "stateMutability": "nonpayable",
      "type": "constructor"
    },
    {
      "anonymous": false,
      "inputs": [
        {
          "indexed": true,
          "internalType": "address",
          "name": "user",
          "type": "address"
        },
        {
          "indexed": false,
          "internalType": "uint256",
          "name": "amount",
          "type": "uint256"
        }
      ],
      "name": "Borrow",
      "type": "event"
    },
    {
      "anonymous": false,
      "inputs": [
        {
          "indexed": true,
          "internalType": "address",
          "name": "user",
          "type": "address"
        },
        {
          "indexed": false,
          "internalType": "uint256",
          "name": "amount",
          "type": "uint256"
        }
      ],
      "name": "Deposit",
      "type": "event"
    },
    {
      "anonymous": false,
      "inputs": [
        {
          "indexed": true,
          "internalType": "address",
          "name": "user",
          "type": "address"
        },
        {
          "indexed": false,
          "internalType": "uint256",
          "name": "amount",
          "type": "uint256"
        }
      ],
      "name": "Liquidate",
      "type": "event"
    },
    {
      "anonymous": false,
      "inputs": [
        {
          "indexed": true,
          "internalType": "address",
          "name": "previousOwner",
          "type": "address"
        },
        {
          "indexed": true,
          "internalType": "address",
          "name": "newOwner",
          "type": "address"
        }
      ],
      "name": "OwnershipTransferred",
      "type": "event"
    },
    {
      "anonymous": false,
      "inputs": [
        {
          "indexed": false,
          "internalType": "address",
          "name": "account",
          "type": "address"
        }
      ],
      "name": "Paused",
      "type": "event"
    },
    {
      "anonymous": false,
      "inputs": [
        {
          "indexed": true,
          "internalType": "address",
          "name": "user",
          "type": "address"
        },
        {
          "indexed": false,
          "internalType": "uint256",
          "name": "amount",
          "type": "uint256"
        }
      ],
      "name": "Repay",
      "type": "event"
    },
    {
      "anonymous": false,
      "inputs": [
        {
          "indexed": false,
          "internalType": "address",
          "name": "account",
          "type": "address"
        }
      ],
      "name": "Unpaused",
      "type": "event"
    },
    {
      "anonymous": false,
      "inputs": [
        {
          "indexed": true,
          "internalType": "address",
          "name": "user",
          "type": "address"
        },
        {
          "indexed": false,
          "internalType": "uint256",
          "name": "amount",
          "type": "uint256"
        }
      ],
      "name": "Withdraw",
      "type": "event"
    },
    {
      "inputs": [],
      "name": "COLLATERAL_FACTOR",
      "outputs": [
        {
          "internalType": "uint256",
          "name": "",
          "type": "uint256"
        }
      ],
      "stateMutability": "view",
      "type": "function"
    },
    {
      "inputs": [],
      "name": "LIQUIDATION_THRESHOLD",
      "outputs": [
        {
          "internalType": "uint256",
          "name": "",
          "type": "uint256"
        }
      ],
      "stateMutability": "view",
      "type": "function"
    },
    {
      "inputs": [
        {
          "internalType": "uint256",
          "name": "_amount",
          "type": "uint256"
        }
      ],
      "name": "borrow",
      "outputs": [],
      "stateMutability": "nonpayable",
      "type": "function"
    },
    {
      "inputs": [
        {
          "internalType": "address",
          "name": "",
          "type": "address"
        }
      ],
      "name": "borrows",
      "outputs": [
        {
          "internalType": "uint256",
          "name": "",
          "type": "uint256"
        }
      ],
      "stateMutability": "view",
      "type": "function"
    },
    {
      "inputs": [
        {
          "internalType": "address",
          "name": "_user",
          "type": "address"
        }
      ],
      "name": "calculateInterest",
      "outputs": [
        {
          "internalType": "uint256",
          "name": "",
          "type": "uint256"
        }
      ],
      "stateMutability": "view",
      "type": "function"
    },
    {
      "inputs": [
        {
          "internalType": "uint256",
          "name": "_amount",
          "type": "uint256"
        }
      ],
      "name": "deposit",
      "outputs": [],
      "stateMutability": "nonpayable",
      "type": "function"
    },
    {
      "inputs": [
        {
          "internalType": "address",
          "name": "",
          "type": "address"
        }
      ],
      "name": "deposits",
      "outputs": [
        {
          "internalType": "uint256",
          "name": "",
          "type": "uint256"
        }
      ],
      "stateMutability": "view",
      "type": "function"
    },
    {
      "inputs": [
        {
          "internalType": "address",
          "name": "",
          "type": "address"
        }
      ],
      "name": "lastBorrowTime",
      "outputs": [
        {
          "internalType": "uint256",
          "name": "",
          "type": "uint256"
        }
      ],
      "stateMutability": "view",
      "type": "function"
    },
    {
      "inputs": [
        {
          "internalType": "address",
          "name": "_user",
          "type": "address"
        }
      ],
      "name": "liquidate",
      "outputs": [],
      "stateMutability": "nonpayable",
      "type": "function"
    },
    {
      "inputs": [],
      "name": "owner",
      "outputs": [
        {
          "internalType": "address",
          "name": "",
          "type": "address"
        }
      ],
      "stateMutability": "view",
      "type": "function"
    },
    {
      "inputs": [],
      "name": "pause",
      "outputs": [],
      "stateMutability": "nonpayable",
      "type": "function"
    },
    {
      "inputs": [],
      "name": "paused",
      "outputs": [
        {
          "internalType": "bool",
          "name": "",
          "type": "bool"
        }
      ],
      "stateMutability": "view",
      "type": "function"
    },
    {
      "inputs": [],
      "name": "renounceOwnership",
      "outputs": [],
      "stateMutability": "nonpayable",
      "type": "function"
    },
    {
      "inputs": [
        {
          "internalType": "uint256",
          "name": "_amount",
          "type": "uint256"
        }
      ],
      "name": "repay",
      "outputs": [],
      "stateMutability": "nonpayable",
      "type": "function"
    },
    {
      "inputs": [],
      "name": "token",
      "outputs": [
        {
          "internalType": "contract IERC20",
          "name": "",
          "type": "address"
        }
      ],
      "stateMutability": "view",
      "type": "function"
    },
    {
      "inputs": [
        {
          "internalType": "address",
          "name": "newOwner",
          "type": "address"
        }
      ],
      "name": "transferOwnership",
      "outputs": [],
      "stateMutability": "nonpayable",
      "type": "function"
    },
    {
      "inputs": [],
      "name": "unpause",
      "outputs": [],
      "stateMutability": "nonpayable",
      "type": "function"
    },
    {
      "inputs": [
        {
          "internalType": "uint256",
          "name": "_amount",
          "type": "uint256"
        }
      ],
      "name": "withdraw",
      "outputs": [],
      "stateMutability": "nonpayable",
      "type": "function"
    }
  ],
  "bytecode": "0x60a06040523480156200001157600080fd5b506040516200243d3803806200243d8339818101604052810190620000379190620001ea565b60016000819055506000600160006101000a81548160ff0219169083151502179055506200007a6200006e620000b560201b60201c565b620000bd60201b60201c565b8073ffffffffffffffffffffffffffffffffffffffff1660808173ffffffffffffffffffffffffffffffffffffffff1681525050506200021c565b600033905090565b600060018054906101000a900473ffffffffffffffffffffffffffffffffffffffff169050816001806101000a81548173ffffffffffffffffffffffffffffffffffffffff021916908373ffffffffffffffffffffffffffffffffffffffff1602179055508173ffffffffffffffffffffffffffffffffffffffff168173ffffffffffffffffffffffffffffffffffffffff167f8be0079c531659141344cd1fd0a4f28419497f9722a3daafe3b4186f6b6457e060405160405180910390a35050565b600080fd5b600073ffffffffffffffffffffffffffffffffffffffff82169050919050565b6000620001b28262000185565b9050919050565b620001c481620001a5565b8114620001d057600080fd5b50565b600081519050620001e481620001b9565b92915050565b60006020828403121562000203576200020262000180565b5b60006200021384828501620001d3565b91505092915050565b6080516121e26200025b600039600081816104b50152818161081201528181610a6e01528181610d40015281816110f701526113ce01526121e26000f3fe608060405234801561001057600080fd5b50600436106101165760003560e01c80638c02b712116100a2578063c5ebeaec11610071578063c5ebeaec14610281578063e11932cf1461029d578063f2fde38b146102cd578063fc0c546a146102e9578063fc7e286d1461030757610116565b80638c02b712146101f95780638da5cb5b1461022957806390a8ae9b14610247578063b6b55f251461026557610116565b80633f4ba83a116100e95780633f4ba83a1461018d57806354a5706f146101975780635c975abb146101c7578063715018a6146101e55780638456cb59146101ef57610116565b806317f49e051461011b5780632e1a7d4d146101395780632f86556814610155578063371fd8e614610171575b600080fd5b610123610337565b604051610130919061186f565b60405180910390f35b610153600480360381019061014e91906118bb565b61033c565b005b61016f600480360381019061016a9190611946565b6105ea565b005b61018b600480360381019061018691906118bb565b610949565b005b610195610bfa565b005b6101b160048036038101906101ac9190611946565b610c0c565b6040516101be919061186f565b60405180910390f35b6101cf610c24565b6040516101dc919061198e565b60405180910390f35b6101ed610c3b565b005b6101f7610c4f565b005b610213600480360381019061020e9190611946565b610c61565b604051610220919061186f565b60405180910390f35b610231610c79565b60405161023e91906119b8565b60405180910390f35b61024f610ca1565b60405161025c919061186f565b60405180910390f35b61027f600480360381019061027a91906118bb565b610ca6565b005b61029b600480360381019061029691906118bb565b610ecc565b005b6102b760048036038101906102b29190611946565b61122d565b6040516102c4919061186f565b60405180910390f35b6102e760048036038101906102e29190611946565b611349565b005b6102f16113cc565b6040516102fe9190611a32565b60405180910390f35b610321600480360381019061031c9190611946565b6113f0565b60405161032e919061186f565b60405180910390f35b604b81565b600260005403610381576040517f08c379a000000000000000000000000000000000000000000000000000000000815260040161037890611aaa565b60405180910390fd5b6002600081905550610391611408565b61039a33611452565b6000600260003373ffffffffffffffffffffffffffffffffffffffff1673ffffffffffffffffffffffffffffffffffffffff16815260200190815260200160002054905060008211610421576040517f08c379a000000000000000000000000000000000000000000000000000000000815260040161041890611b16565b60405180910390fd5b81811015610464576040517f08c379a000000000000000000000000000000000000000000000000000000000815260040161045b90611b82565b60405180910390fd5b81816104709190611bd1565b600260003373ffffffffffffffffffffffffffffffffffffffff1673ffffffffffffffffffffffffffffffffffffffff168152602001908152602001600020819055507f000000000000000000000000000000000000000000000000000000000000000073ffffffffffffffffffffffffffffffffffffffff1663a9059cbb33846040518363ffffffff1660e01b815260040161050e929190611c05565b6020604051808303816000875af115801561052d573d6000803e3d6000fd5b505050506040513d601f19601f820116820180604052508101906105519190611c5a565b610590576040517f08c379a000000000000000000000000000000000000000000000000000000000815260040161058790611cd3565b60405180910390fd5b3373ffffffffffffffffffffffffffffffffffffffff167f884edad9ce6fa2440d8a54cc123490eb96d2768479d49ff9c7366125a9424364836040516105d6919061186f565b60405180910390a250600160008190555050565b60026000540361062f576040517f08c379a000000000000000000000000000000000000000000000000000000000815260040161062690611aaa565b60405180910390fd5b600260008190555061063f611408565b61064881611452565b60006064604b600260008573ffffffffffffffffffffffffffffffffffffffff1673ffffffffffffffffffffffffffffffffffffffff168152602001908152602001600020546106989190611cf3565b6106a29190611d64565b90506000600360008473ffffffffffffffffffffffffffffffffffffffff1673ffffffffffffffffffffffffffffffffffffffff16815260200190815260200160002054905060646032836106f79190611cf3565b6107019190611d64565b8111610742576040517f08c379a000000000000000000000000000000000000000000000000000000000815260040161073990611de1565b60405180910390fd5b6000600260008573ffffffffffffffffffffffffffffffffffffffff1673ffffffffffffffffffffffffffffffffffffffff1681526020019081526020016000205490506000600260008673ffffffffffffffffffffffffffffffffffffffff1673ffffffffffffffffffffffffffffffffffffffff168152602001908152602001600020819055506000600360008673ffffffffffffffffffffffffffffffffffffffff1673ffffffffffffffffffffffffffffffffffffffff168152602001908152602001600020819055507f000000000000000000000000000000000000000000000000000000000000000073ffffffffffffffffffffffffffffffffffffffff1663a9059cbb33836040518363ffffffff1660e01b815260040161086b929190611c05565b6020604051808303816000875af115801561088a573d6000803e3d6000fd5b505050506040513d601f19601f820116820180604052508101906108ae9190611c5a565b6108ed576040517f08c379a00000000000000000000000000000000000000000000000000000000081526004016108e490611e4d565b60405180910390fd5b8373ffffffffffffffffffffffffffffffffffffffff167f08813a3631e12129135cc9440d3fea50eec346f1673b20b994b0456d5d46ccb982604051610933919061186f565b60405180910390a2505050600160008190555050565b60026000540361098e576040517f08c379a000000000000000000000000000000000000000000000000000000000815260040161098590611aaa565b60405180910390fd5b600260008190555061099e611408565b6109a733611452565b600081116109ea576040517f08c379a00000000000000000000000000000000000000000000000000000000081526004016109e190611b16565b60405180910390fd5b80600360003373ffffffffffffffffffffffffffffffffffffffff1673ffffffffffffffffffffffffffffffffffffffff168152602001908152602001600020541015610a6c576040517f08c379a0000000000000000000000000000000000000000000000000000000008152600401610a6390611edf565b60405180910390fd5b7f000000000000000000000000000000000000000000000000000000000000000073ffffffffffffffffffffffffffffffffffffffff166323b872dd3330846040518463ffffffff1660e01b8152600401610ac993929190611eff565b6020604051808303816000875af1158015610ae8573d6000803e3d6000fd5b505050506040513d601f19601f82011682018060405250810190610b0c9190611c5a565b610b4b576040517f08c379a0000000000000000000000000000000000000000000000000000000008152600401610b4290611e4d565b60405180910390fd5b80600360003373ffffffffffffffffffffffffffffffffffffffff1673ffffffffffffffffffffffffffffffffffffffff1681526020019081526020016000206000828254610b9a9190611bd1565b925050819055503373ffffffffffffffffffffffffffffffffffffffff167f5c16de4f8b59bd9caf0f49a545f25819a895ed223294290b408242e72a59423182604051610be7919061186f565b60405180910390a2600160008190555050565b610c026115ff565b610c0a61167d565b565b60036020528060005260406000206000915090505481565b6000600160009054906101000a900460ff16905090565b610c436115ff565b610c4d60006116e0565b565b610c576115ff565b610c5f6117a3565b565b60046020528060005260406000206000915090505481565b600060018054906101000a900473ffffffffffffffffffffffffffffffffffffffff16905090565b603281565b600260005403610ceb576040517f08c379a0000000000000000000000000000000000000000000000000000000008152600401610ce290611aaa565b60405180910390fd5b6002600081905550610cfb611408565b60008111610d3e576040517f08c379a0000000000000000000000000000000000000000000000000000000008152600401610d3590611b16565b60405180910390fd5b7f000000000000000000000000000000000000000000000000000000000000000073ffffffffffffffffffffffffffffffffffffffff166323b872dd3330846040518463ffffffff1660e01b8152600401610d9b93929190611eff565b6020604051808303816000875af1158015610dba573d6000803e3d6000fd5b505050506040513d601f19601f82011682018060405250810190610dde9190611c5a565b610e1d576040517f08c379a0000000000000000000000000000000000000000000000000000000008152600401610e1490611e4d565b60405180910390fd5b80600260003373ffffffffffffffffffffffffffffffffffffffff1673ffffffffffffffffffffffffffffffffffffffff1681526020019081526020016000206000828254610e6c9190611f36565b925050819055503373ffffffffffffffffffffffffffffffffffffffff167fe1fffcc4923d04b559f4d29a8bfc6cda04eb5b0d3c460751c2402c5c5cc9109c82604051610eb9919061186f565b60405180910390a2600160008190555050565b600260005403610f11576040517f08c379a0000000000000000000000000000000000000000000000000000000008152600401610f0890611aaa565b60405180910390fd5b6002600081905550610f21611408565b610f2a33611452565b60008111610f6d576040517f08c379a0000000000000000000000000000000000000000000000000000000008152600401610f6490611b16565b60405180910390fd5b6000600260003373ffffffffffffffffffffffffffffffffffffffff1673ffffffffffffffffffffffffffffffffffffffff16815260200190815260200160002054905060006064604b83610fc29190611cf3565b610fcc9190611d64565b90508083600360003373ffffffffffffffffffffffffffffffffffffffff1673ffffffffffffffffffffffffffffffffffffffff1681526020019081526020016000205461101a9190611f36565b111561105b576040517f08c379a000000000000000000000000000000000000000000000000000000000815260040161105290611fb6565b60405180910390fd5b82600360003373ffffffffffffffffffffffffffffffffffffffff1673ffffffffffffffffffffffffffffffffffffffff16815260200190815260200160002060008282546110aa9190611f36565b9250508190555042600460003373ffffffffffffffffffffffffffffffffffffffff1673ffffffffffffffffffffffffffffffffffffffff168152602001908152602001600020819055507f000000000000000000000000000000000000000000000000000000000000000073ffffffffffffffffffffffffffffffffffffffff1663a9059cbb33856040518363ffffffff1660e01b8152600401611150929190611c05565b6020604051808303816000875af115801561116f573d6000803e3d6000fd5b505050506040513d601f19601f820116820180604052508101906111939190611c5a565b6111d2576040517f08c379a00000000000000000000000000000000000000000000000000000000081526004016111c990611e4d565b60405180910390fd5b3373ffffffffffffffffffffffffffffffffffffffff167fcbc04eca7e9da35cb1393a6135a199ca52e450d5e9251cbd99f7847d33a3675084604051611218919061186f565b60405180910390a25050600160008190555050565b600080600360008473ffffffffffffffffffffffffffffffffffffffff1673ffffffffffffffffffffffffffffffffffffffff16815260200190815260200160002054111561133f576000600460008473ffffffffffffffffffffffffffffffffffffffff1673ffffffffffffffffffffffffffffffffffffffff16815260200190815260200160002054426112c39190611bd1565b90506301e133808160646002600360008873ffffffffffffffffffffffffffffffffffffffff1673ffffffffffffffffffffffffffffffffffffffff168152602001908152602001600020546113199190611cf3565b6113239190611d64565b61132d9190611cf3565b6113379190611d64565b915050611344565b600090505b919050565b6113516115ff565b600073ffffffffffffffffffffffffffffffffffffffff168173ffffffffffffffffffffffffffffffffffffffff16036113c0576040517f08c379a00000000000000000000000000000000000000000000000000000000081526004016113b790612048565b60405180910390fd5b6113c9816116e0565b50565b7f000000000000000000000000000000000000000000000000000000000000000081565b60026020528060005260406000206000915090505481565b611410610c24565b15611450576040517f08c379a0000000000000000000000000000000000000000000000000000000008152600401611447906120b4565b60405180910390fd5b565b6000600360008373ffffffffffffffffffffffffffffffffffffffff1673ffffffffffffffffffffffffffffffffffffffff1681526020019081526020016000205411156115fc576000600460008373ffffffffffffffffffffffffffffffffffffffff1673ffffffffffffffffffffffffffffffffffffffff16815260200190815260200160002054426114e79190611bd1565b905060006301e133808260646002600360008873ffffffffffffffffffffffffffffffffffffffff1673ffffffffffffffffffffffffffffffffffffffff1681526020019081526020016000205461153f9190611cf3565b6115499190611d64565b6115539190611cf3565b61155d9190611d64565b905080600360008573ffffffffffffffffffffffffffffffffffffffff1673ffffffffffffffffffffffffffffffffffffffff16815260200190815260200160002060008282546115ae9190611f36565b9250508190555042600460008573ffffffffffffffffffffffffffffffffffffffff1673ffffffffffffffffffffffffffffffffffffffff1681526020019081526020016000208190555050505b50565b611607611805565b73ffffffffffffffffffffffffffffffffffffffff16611625610c79565b73ffffffffffffffffffffffffffffffffffffffff161461167b576040517f08c379a000000000000000000000000000000000000000000000000000000000815260040161167290612120565b60405180910390fd5b565b61168561180d565b6000600160006101000a81548160ff0219169083151502179055507f5db9ee0a495bf2e6ff9c91a7834c1ba4fdd244a5e8aa4e537bd38aeae4b073aa6116c9611805565b6040516116d691906119b8565b60405180910390a1565b600060018054906101000a900473ffffffffffffffffffffffffffffffffffffffff169050816001806101000a81548173ffffffffffffffffffffffffffffffffffffffff021916908373ffffffffffffffffffffffffffffffffffffffff1602179055508173ffffffffffffffffffffffffffffffffffffffff168173ffffffffffffffffffffffffffffffffffffffff167f8be0079c531659141344cd1fd0a4f28419497f9722a3daafe3b4186f6b6457e060405160405180910390a35050565b6117ab611408565b60018060006101000a81548160ff0219169083151502179055507f62e78cea01bee320cd4e420270b5ea74000d11b0c9f74754ebdbfc544b05a2586117ee611805565b6040516117fb91906119b8565b60405180910390a1565b600033905090565b611815610c24565b611854576040517f08c379a000000000000000000000000000000000000000000000000000000000815260040161184b9061218c565b60405180910390fd5b565b6000819050919050565b61186981611856565b82525050565b60006020820190506118846000830184611860565b92915050565b600080fd5b61189881611856565b81146118a357600080fd5b50565b6000813590506118b58161188f565b92915050565b6000602082840312156118d1576118d061188a565b5b60006118df848285016118a6565b91505092915050565b600073ffffffffffffffffffffffffffffffffffffffff82169050919050565b6000611913826118e8565b9050919050565b61192381611908565b811461192e57600080fd5b50565b6000813590506119408161191a565b92915050565b60006020828403121561195c5761195b61188a565b5b600061196a84828501611931565b91505092915050565b60008115159050919050565b61198881611973565b82525050565b60006020820190506119a3600083018461197f565b92915050565b6119b281611908565b82525050565b60006020820190506119cd60008301846119a9565b92915050565b6000819050919050565b60006119f86119f36119ee846118e8565b6119d3565b6118e8565b9050919050565b6000611a0a826119dd565b9050919050565b6000611a1c826119ff565b9050919050565b611a2c81611a11565b82525050565b6000602082019050611a476000830184611a23565b92915050565b600082825260208201905092915050565b7f5265656e7472616e637947756172643a207265656e7472616e742063616c6c00600082015250565b6000611a94601f83611a4d565b9150611a9f82611a5e565b602082019050919050565b60006020820190508181036000830152611ac381611a87565b9050919050565b7f416d6f756e74206d7573742062652067726561746572207468616e2030000000600082015250565b6000611b00601d83611a4d565b9150611b0b82611aca565b602082019050919050565b60006020820190508181036000830152611b2f81611af3565b9050919050565b7f496e73756666696369656e742062616c616e6365000000000000000000000000600082015250565b6000611b6c601483611a4d565b9150611b7782611b36565b602082019050919050565b60006020820190508181036000830152611b9b81611b5f565b9050919050565b7f4e487b7100000000000000000000000000000000000000000000000000000000600052601160045260246000fd5b6000611bdc82611856565b9150611be783611856565b9250828203905081811115611bff57611bfe611ba2565b5b92915050565b6000604082019050611c1a60008301856119a9565b611c276020830184611860565b9392505050565b611c3781611973565b8114611c4257600080fd5b50565b600081519050611c5481611c2e565b92915050565b600060208284031215611c7057611c6f61188a565b5b6000611c7e84828501611c45565b91505092915050565b7f5769746864726177206661696c65640000000000000000000000000000000000600082015250565b6000611cbd600f83611a4d565b9150611cc882611c87565b602082019050919050565b60006020820190508181036000830152611cec81611cb0565b9050919050565b6000611cfe82611856565b9150611d0983611856565b9250828202611d1781611856565b91508282048414831517611d2e57611d2d611ba2565b5b5092915050565b7f4e487b7100000000000000000000000000000000000000000000000000000000600052601260045260246000fd5b6000611d6f82611856565b9150611d7a83611856565b925082611d8a57611d89611d35565b5b828204905092915050565b7f43616e6e6f74206c697175696461746500000000000000000000000000000000600082015250565b6000611dcb601083611a4d565b9150611dd682611d95565b602082019050919050565b60006020820190508181036000830152611dfa81611dbe565b9050919050565b7f5472616e73666572206661696c65640000000000000000000000000000000000600082015250565b6000611e37600f83611a4d565b9150611e4282611e01565b602082019050919050565b60006020820190508181036000830152611e6681611e2a565b9050919050565b7f526570617920616d6f756e74206578636565647320626f72726f772062616c6160008201527f6e63650000000000000000000000000000000000000000000000000000000000602082015250565b6000611ec9602383611a4d565b9150611ed482611e6d565b604082019050919050565b60006020820190508181036000830152611ef881611ebc565b9050919050565b6000606082019050611f1460008301866119a9565b611f2160208301856119a9565b611f2e6040830184611860565b949350505050565b6000611f4182611856565b9150611f4c83611856565b9250828201905080821115611f6457611f63611ba2565b5b92915050565b7f4578636565647320616c6c6f77656420626f72726f7720616d6f756e74000000600082015250565b6000611fa0601d83611a4d565b9150611fab82611f6a565b602082019050919050565b60006020820190508181036000830152611fcf81611f93565b9050919050565b7f4f776e61626c653a206e6577206f776e657220697320746865207a65726f206160008201527f6464726573730000000000000000000000000000000000000000000000000000602082015250565b6000612032602683611a4d565b915061203d82611fd6565b604082019050919050565b6000602082019050818103600083015261206181612025565b9050919050565b7f5061757361626c653a2070617573656400000000000000000000000000000000600082015250565b600061209e601083611a4d565b91506120a982612068565b602082019050919050565b600060208201905081810360008301526120cd81612091565b9050919050565b7f4f776e61626c653a2063616c6c6572206973206e6f7420746865206f776e6572600082015250565b600061210a602083611a4d565b9150612115826120d4565b602082019050919050565b60006020820190508181036000830152612139816120fd565b9050919050565b7f5061757361626c653a206e6f7420706175736564000000000000000000000000600082015250565b6000612176601483611a4d565b915061218182612140565b602082019050919050565b600060208201905081810360008301526121a581612169565b905091905056fea2646970667358221220b66ef734f2c6ff086ecf944a79537933207b56c8d85e9454888252cba91e087264736f6c63430008130033",
  "linkReferences": {},
  "deployedLinkReferences": {}
}