{
  "_format": "hh-sol-artifact-1",
  "contractName": "SimpleLendingProtocol",
  "sourceName": "contracts/SimpleLendingProtocol.sol",
  "abi": [
    {
      "inputs": [
        {
          "internalType": "address",
          "name": "_token",
          "type": "address"
        }
      ],
      "stateMutability": "nonpayable",
      "type": "constructor"
    },
    {
      "anonymous": false,
      "inputs": [
        {
          "indexed": true,
          "internalType": "address",
          "name": "user",
          "type": "address"
        },
        {
          "indexed": false,
          "internalType": "uint256",
          "name": "amount",
          "type": "uint256"
        }
      ],
      "name": "Borrow",
      "type": "event"
    },
    {
      "anonymous": false,
      "inputs": [
        {
          "indexed": true,
          "internalType": "address",
          "name": "user",
          "type": "address"
        },
        {
          "indexed": false,
          "internalType": "uint256",
          "name": "amount",
          "type": "uint256"
        }
      ],
      "name": "Deposit",
      "type": "event"
    },
    {
      "anonymous": false,
      "inputs": [
        {
          "indexed": true,
          "internalType": "address",
          "name": "user",
          "type": "address"
        },
        {
          "indexed": false,
          "internalType": "uint256",
          "name": "amount",
          "type": "uint256"
        }
      ],
      "name": "Liquidate",
      "type": "event"
    },
    {
      "anonymous": false,
      "inputs": [
        {
          "indexed": true,
          "internalType": "address",
          "name": "previousOwner",
          "type": "address"
        },
        {
          "indexed": true,
          "internalType": "address",
          "name": "newOwner",
          "type": "address"
        }
      ],
      "name": "OwnershipTransferred",
      "type": "event"
    },
    {
      "anonymous": false,
      "inputs": [
        {
          "indexed": false,
          "internalType": "address",
          "name": "account",
          "type": "address"
        }
      ],
      "name": "Paused",
      "type": "event"
    },
    {
      "anonymous": false,
      "inputs": [
        {
          "indexed": true,
          "internalType": "address",
          "name": "user",
          "type": "address"
        },
        {
          "indexed": false,
          "internalType": "uint256",
          "name": "amount",
          "type": "uint256"
        }
      ],
      "name": "Repay",
      "type": "event"
    },
    {
      "anonymous": false,
      "inputs": [
        {
          "indexed": false,
          "internalType": "address",
          "name": "account",
          "type": "address"
        }
      ],
      "name": "Unpaused",
      "type": "event"
    },
    {
      "anonymous": false,
      "inputs": [
        {
          "indexed": true,
          "internalType": "address",
          "name": "user",
          "type": "address"
        },
        {
          "indexed": false,
          "internalType": "uint256",
          "name": "amount",
          "type": "uint256"
        }
      ],
      "name": "Withdraw",
      "type": "event"
    },
    {
      "inputs": [],
      "name": "COLLATERAL_FACTOR",
      "outputs": [
        {
          "internalType": "uint256",
          "name": "",
          "type": "uint256"
        }
      ],
      "stateMutability": "view",
      "type": "function"
    },
    {
      "inputs": [],
      "name": "LIQUIDATION_THRESHOLD",
      "outputs": [
        {
          "internalType": "uint256",
          "name": "",
          "type": "uint256"
        }
      ],
      "stateMutability": "view",
      "type": "function"
    },
    {
      "inputs": [
        {
          "internalType": "uint256",
          "name": "_amount",
          "type": "uint256"
        }
      ],
      "name": "borrow",
      "outputs": [],
      "stateMutability": "nonpayable",
      "type": "function"
    },
    {
      "inputs": [
        {
          "internalType": "address",
          "name": "",
          "type": "address"
        }
      ],
      "name": "borrows",
      "outputs": [
        {
          "internalType": "uint256",
          "name": "",
          "type": "uint256"
        }
      ],
      "stateMutability": "view",
      "type": "function"
    },
    {
      "inputs": [
        {
          "internalType": "address",
          "name": "_user",
          "type": "address"
        }
      ],
      "name": "calculateInterest",
      "outputs": [
        {
          "internalType": "uint256",
          "name": "",
          "type": "uint256"
        }
      ],
      "stateMutability": "view",
      "type": "function"
    },
    {
      "inputs": [
        {
          "internalType": "uint256",
          "name": "_amount",
          "type": "uint256"
        }
      ],
      "name": "deposit",
      "outputs": [],
      "stateMutability": "nonpayable",
      "type": "function"
    },
    {
      "inputs": [
        {
          "internalType": "address",
          "name": "",
          "type": "address"
        }
      ],
      "name": "deposits",
      "outputs": [
        {
          "internalType": "uint256",
          "name": "",
          "type": "uint256"
        }
      ],
      "stateMutability": "view",
      "type": "function"
    },
    {
      "inputs": [
        {
          "internalType": "address",
          "name": "account",
          "type": "address"
        }
      ],
      "name": "getDepositBalance",
      "outputs": [
        {
          "internalType": "uint256",
          "name": "",
          "type": "uint256"
        }
      ],
      "stateMutability": "view",
      "type": "function"
    },
    {
      "inputs": [
        {
          "internalType": "address",
          "name": "",
          "type": "address"
        }
      ],
      "name": "lastBorrowTime",
      "outputs": [
        {
          "internalType": "uint256",
          "name": "",
          "type": "uint256"
        }
      ],
      "stateMutability": "view",
      "type": "function"
    },
    {
      "inputs": [
        {
          "internalType": "address",
          "name": "_user",
          "type": "address"
        }
      ],
      "name": "liquidate",
      "outputs": [],
      "stateMutability": "nonpayable",
      "type": "function"
    },
    {
      "inputs": [],
      "name": "owner",
      "outputs": [
        {
          "internalType": "address",
          "name": "",
          "type": "address"
        }
      ],
      "stateMutability": "view",
      "type": "function"
    },
    {
      "inputs": [],
      "name": "pause",
      "outputs": [],
      "stateMutability": "nonpayable",
      "type": "function"
    },
    {
      "inputs": [],
      "name": "paused",
      "outputs": [
        {
          "internalType": "bool",
          "name": "",
          "type": "bool"
        }
      ],
      "stateMutability": "view",
      "type": "function"
    },
    {
      "inputs": [],
      "name": "renounceOwnership",
      "outputs": [],
      "stateMutability": "nonpayable",
      "type": "function"
    },
    {
      "inputs": [
        {
          "internalType": "uint256",
          "name": "_amount",
          "type": "uint256"
        }
      ],
      "name": "repay",
      "outputs": [],
      "stateMutability": "nonpayable",
      "type": "function"
    },
    {
      "inputs": [],
      "name": "token",
      "outputs": [
        {
          "internalType": "contract IERC20",
          "name": "",
          "type": "address"
        }
      ],
      "stateMutability": "view",
      "type": "function"
    },
    {
      "inputs": [
        {
          "internalType": "address",
          "name": "newOwner",
          "type": "address"
        }
      ],
      "name": "transferOwnership",
      "outputs": [],
      "stateMutability": "nonpayable",
      "type": "function"
    },
    {
      "inputs": [],
      "name": "unpause",
      "outputs": [],
      "stateMutability": "nonpayable",
      "type": "function"
    },
    {
      "inputs": [
        {
          "internalType": "uint256",
          "name": "_amount",
          "type": "uint256"
        }
      ],
      "name": "withdraw",
      "outputs": [],
      "stateMutability": "nonpayable",
      "type": "function"
    }
  ],
  "bytecode": "0x60a06040523480156200001157600080fd5b50604051620024c1380380620024c18339818101604052810190620000379190620001ea565b60016000819055506000600160006101000a81548160ff0219169083151502179055506200007a6200006e620000b560201b60201c565b620000bd60201b60201c565b8073ffffffffffffffffffffffffffffffffffffffff1660808173ffffffffffffffffffffffffffffffffffffffff1681525050506200021c565b600033905090565b600060018054906101000a900473ffffffffffffffffffffffffffffffffffffffff169050816001806101000a81548173ffffffffffffffffffffffffffffffffffffffff021916908373ffffffffffffffffffffffffffffffffffffffff1602179055508173ffffffffffffffffffffffffffffffffffffffff168173ffffffffffffffffffffffffffffffffffffffff167f8be0079c531659141344cd1fd0a4f28419497f9722a3daafe3b4186f6b6457e060405160405180910390a35050565b600080fd5b600073ffffffffffffffffffffffffffffffffffffffff82169050919050565b6000620001b28262000185565b9050919050565b620001c481620001a5565b8114620001d057600080fd5b50565b600081519050620001e481620001b9565b92915050565b60006020828403121562000203576200020262000180565b5b60006200021384828501620001d3565b91505092915050565b6080516122666200025b600039600081816104f00152818161084d01528181610aa901528181610d7b01528181611132015261145201526122666000f3fe608060405234801561001057600080fd5b50600436106101215760003560e01c80638c02b712116100ad578063e11932cf11610071578063e11932cf146102a8578063ed05ae78146102d8578063f2fde38b14610308578063fc0c546a14610324578063fc7e286d1461034257610121565b80638c02b712146102045780638da5cb5b1461023457806390a8ae9b14610252578063b6b55f2514610270578063c5ebeaec1461028c57610121565b80633f4ba83a116100f45780633f4ba83a1461019857806354a5706f146101a25780635c975abb146101d2578063715018a6146101f05780638456cb59146101fa57610121565b806317f49e05146101265780632e1a7d4d146101445780632f86556814610160578063371fd8e61461017c575b600080fd5b61012e610372565b60405161013b91906118f3565b60405180910390f35b61015e6004803603810190610159919061193f565b610377565b005b61017a600480360381019061017591906119ca565b610625565b005b6101966004803603810190610191919061193f565b610984565b005b6101a0610c35565b005b6101bc60048036038101906101b791906119ca565b610c47565b6040516101c991906118f3565b60405180910390f35b6101da610c5f565b6040516101e79190611a12565b60405180910390f35b6101f8610c76565b005b610202610c8a565b005b61021e600480360381019061021991906119ca565b610c9c565b60405161022b91906118f3565b60405180910390f35b61023c610cb4565b6040516102499190611a3c565b60405180910390f35b61025a610cdc565b60405161026791906118f3565b60405180910390f35b61028a6004803603810190610285919061193f565b610ce1565b005b6102a660048036038101906102a1919061193f565b610f07565b005b6102c260048036038101906102bd91906119ca565b611268565b6040516102cf91906118f3565b60405180910390f35b6102f260048036038101906102ed91906119ca565b611384565b6040516102ff91906118f3565b60405180910390f35b610322600480360381019061031d91906119ca565b6113cd565b005b61032c611450565b6040516103399190611ab6565b60405180910390f35b61035c600480360381019061035791906119ca565b611474565b60405161036991906118f3565b60405180910390f35b604b81565b6002600054036103bc576040517f08c379a00000000000000000000000000000000000000000000000000000000081526004016103b390611b2e565b60405180910390fd5b60026000819055506103cc61148c565b6103d5336114d6565b6000600260003373ffffffffffffffffffffffffffffffffffffffff1673ffffffffffffffffffffffffffffffffffffffff1681526020019081526020016000205490506000821161045c576040517f08c379a000000000000000000000000000000000000000000000000000000000815260040161045390611b9a565b60405180910390fd5b8181101561049f576040517f08c379a000000000000000000000000000000000000000000000000000000000815260040161049690611c06565b60405180910390fd5b81816104ab9190611c55565b600260003373ffffffffffffffffffffffffffffffffffffffff1673ffffffffffffffffffffffffffffffffffffffff168152602001908152602001600020819055507f000000000000000000000000000000000000000000000000000000000000000073ffffffffffffffffffffffffffffffffffffffff1663a9059cbb33846040518363ffffffff1660e01b8152600401610549929190611c89565b6020604051808303816000875af1158015610568573d6000803e3d6000fd5b505050506040513d601f19601f8201168201806040525081019061058c9190611cde565b6105cb576040517f08c379a00000000000000000000000000000000000000000000000000000000081526004016105c290611d57565b60405180910390fd5b3373ffffffffffffffffffffffffffffffffffffffff167f884edad9ce6fa2440d8a54cc123490eb96d2768479d49ff9c7366125a94243648360405161061191906118f3565b60405180910390a250600160008190555050565b60026000540361066a576040517f08c379a000000000000000000000000000000000000000000000000000000000815260040161066190611b2e565b60405180910390fd5b600260008190555061067a61148c565b610683816114d6565b60006064604b600260008573ffffffffffffffffffffffffffffffffffffffff1673ffffffffffffffffffffffffffffffffffffffff168152602001908152602001600020546106d39190611d77565b6106dd9190611de8565b90506000600360008473ffffffffffffffffffffffffffffffffffffffff1673ffffffffffffffffffffffffffffffffffffffff16815260200190815260200160002054905060646032836107329190611d77565b61073c9190611de8565b811161077d576040517f08c379a000000000000000000000000000000000000000000000000000000000815260040161077490611e65565b60405180910390fd5b6000600260008573ffffffffffffffffffffffffffffffffffffffff1673ffffffffffffffffffffffffffffffffffffffff1681526020019081526020016000205490506000600260008673ffffffffffffffffffffffffffffffffffffffff1673ffffffffffffffffffffffffffffffffffffffff168152602001908152602001600020819055506000600360008673ffffffffffffffffffffffffffffffffffffffff1673ffffffffffffffffffffffffffffffffffffffff168152602001908152602001600020819055507f000000000000000000000000000000000000000000000000000000000000000073ffffffffffffffffffffffffffffffffffffffff1663a9059cbb33836040518363ffffffff1660e01b81526004016108a6929190611c89565b6020604051808303816000875af11580156108c5573d6000803e3d6000fd5b505050506040513d601f19601f820116820180604052508101906108e99190611cde565b610928576040517f08c379a000000000000000000000000000000000000000000000000000000000815260040161091f90611ed1565b60405180910390fd5b8373ffffffffffffffffffffffffffffffffffffffff167f08813a3631e12129135cc9440d3fea50eec346f1673b20b994b0456d5d46ccb98260405161096e91906118f3565b60405180910390a2505050600160008190555050565b6002600054036109c9576040517f08c379a00000000000000000000000000000000000000000000000000000000081526004016109c090611b2e565b60405180910390fd5b60026000819055506109d961148c565b6109e2336114d6565b60008111610a25576040517f08c379a0000000000000000000000000000000000000000000000000000000008152600401610a1c90611b9a565b60405180910390fd5b80600360003373ffffffffffffffffffffffffffffffffffffffff1673ffffffffffffffffffffffffffffffffffffffff168152602001908152602001600020541015610aa7576040517f08c379a0000000000000000000000000000000000000000000000000000000008152600401610a9e90611f63565b60405180910390fd5b7f000000000000000000000000000000000000000000000000000000000000000073ffffffffffffffffffffffffffffffffffffffff166323b872dd3330846040518463ffffffff1660e01b8152600401610b0493929190611f83565b6020604051808303816000875af1158015610b23573d6000803e3d6000fd5b505050506040513d601f19601f82011682018060405250810190610b479190611cde565b610b86576040517f08c379a0000000000000000000000000000000000000000000000000000000008152600401610b7d90611ed1565b60405180910390fd5b80600360003373ffffffffffffffffffffffffffffffffffffffff1673ffffffffffffffffffffffffffffffffffffffff1681526020019081526020016000206000828254610bd59190611c55565b925050819055503373ffffffffffffffffffffffffffffffffffffffff167f5c16de4f8b59bd9caf0f49a545f25819a895ed223294290b408242e72a59423182604051610c2291906118f3565b60405180910390a2600160008190555050565b610c3d611683565b610c45611701565b565b60036020528060005260406000206000915090505481565b6000600160009054906101000a900460ff16905090565b610c7e611683565b610c886000611764565b565b610c92611683565b610c9a611827565b565b60046020528060005260406000206000915090505481565b600060018054906101000a900473ffffffffffffffffffffffffffffffffffffffff16905090565b603281565b600260005403610d26576040517f08c379a0000000000000000000000000000000000000000000000000000000008152600401610d1d90611b2e565b60405180910390fd5b6002600081905550610d3661148c565b60008111610d79576040517f08c379a0000000000000000000000000000000000000000000000000000000008152600401610d7090611b9a565b60405180910390fd5b7f000000000000000000000000000000000000000000000000000000000000000073ffffffffffffffffffffffffffffffffffffffff166323b872dd3330846040518463ffffffff1660e01b8152600401610dd693929190611f83565b6020604051808303816000875af1158015610df5573d6000803e3d6000fd5b505050506040513d601f19601f82011682018060405250810190610e199190611cde565b610e58576040517f08c379a0000000000000000000000000000000000000000000000000000000008152600401610e4f90611ed1565b60405180910390fd5b80600260003373ffffffffffffffffffffffffffffffffffffffff1673ffffffffffffffffffffffffffffffffffffffff1681526020019081526020016000206000828254610ea79190611fba565b925050819055503373ffffffffffffffffffffffffffffffffffffffff167fe1fffcc4923d04b559f4d29a8bfc6cda04eb5b0d3c460751c2402c5c5cc9109c82604051610ef491906118f3565b60405180910390a2600160008190555050565b600260005403610f4c576040517f08c379a0000000000000000000000000000000000000000000000000000000008152600401610f4390611b2e565b60405180910390fd5b6002600081905550610f5c61148c565b610f65336114d6565b60008111610fa8576040517f08c379a0000000000000000000000000000000000000000000000000000000008152600401610f9f90611b9a565b60405180910390fd5b6000600260003373ffffffffffffffffffffffffffffffffffffffff1673ffffffffffffffffffffffffffffffffffffffff16815260200190815260200160002054905060006064604b83610ffd9190611d77565b6110079190611de8565b90508083600360003373ffffffffffffffffffffffffffffffffffffffff1673ffffffffffffffffffffffffffffffffffffffff168152602001908152602001600020546110559190611fba565b1115611096576040517f08c379a000000000000000000000000000000000000000000000000000000000815260040161108d9061203a565b60405180910390fd5b82600360003373ffffffffffffffffffffffffffffffffffffffff1673ffffffffffffffffffffffffffffffffffffffff16815260200190815260200160002060008282546110e59190611fba565b9250508190555042600460003373ffffffffffffffffffffffffffffffffffffffff1673ffffffffffffffffffffffffffffffffffffffff168152602001908152602001600020819055507f000000000000000000000000000000000000000000000000000000000000000073ffffffffffffffffffffffffffffffffffffffff1663a9059cbb33856040518363ffffffff1660e01b815260040161118b929190611c89565b6020604051808303816000875af11580156111aa573d6000803e3d6000fd5b505050506040513d601f19601f820116820180604052508101906111ce9190611cde565b61120d576040517f08c379a000000000000000000000000000000000000000000000000000000000815260040161120490611ed1565b60405180910390fd5b3373ffffffffffffffffffffffffffffffffffffffff167fcbc04eca7e9da35cb1393a6135a199ca52e450d5e9251cbd99f7847d33a367508460405161125391906118f3565b60405180910390a25050600160008190555050565b600080600360008473ffffffffffffffffffffffffffffffffffffffff1673ffffffffffffffffffffffffffffffffffffffff16815260200190815260200160002054111561137a576000600460008473ffffffffffffffffffffffffffffffffffffffff1673ffffffffffffffffffffffffffffffffffffffff16815260200190815260200160002054426112fe9190611c55565b90506301e133808160646002600360008873ffffffffffffffffffffffffffffffffffffffff1673ffffffffffffffffffffffffffffffffffffffff168152602001908152602001600020546113549190611d77565b61135e9190611de8565b6113689190611d77565b6113729190611de8565b91505061137f565b600090505b919050565b6000600260008373ffffffffffffffffffffffffffffffffffffffff1673ffffffffffffffffffffffffffffffffffffffff168152602001908152602001600020549050919050565b6113d5611683565b600073ffffffffffffffffffffffffffffffffffffffff168173ffffffffffffffffffffffffffffffffffffffff1603611444576040517f08c379a000000000000000000000000000000000000000000000000000000000815260040161143b906120cc565b60405180910390fd5b61144d81611764565b50565b7f000000000000000000000000000000000000000000000000000000000000000081565b60026020528060005260406000206000915090505481565b611494610c5f565b156114d4576040517f08c379a00000000000000000000000000000000000000000000000000000000081526004016114cb90612138565b60405180910390fd5b565b6000600360008373ffffffffffffffffffffffffffffffffffffffff1673ffffffffffffffffffffffffffffffffffffffff168152602001908152602001600020541115611680576000600460008373ffffffffffffffffffffffffffffffffffffffff1673ffffffffffffffffffffffffffffffffffffffff168152602001908152602001600020544261156b9190611c55565b905060006301e133808260646002600360008873ffffffffffffffffffffffffffffffffffffffff1673ffffffffffffffffffffffffffffffffffffffff168152602001908152602001600020546115c39190611d77565b6115cd9190611de8565b6115d79190611d77565b6115e19190611de8565b905080600360008573ffffffffffffffffffffffffffffffffffffffff1673ffffffffffffffffffffffffffffffffffffffff16815260200190815260200160002060008282546116329190611fba565b9250508190555042600460008573ffffffffffffffffffffffffffffffffffffffff1673ffffffffffffffffffffffffffffffffffffffff1681526020019081526020016000208190555050505b50565b61168b611889565b73ffffffffffffffffffffffffffffffffffffffff166116a9610cb4565b73ffffffffffffffffffffffffffffffffffffffff16146116ff576040517f08c379a00000000000000000000000000000000000000000000000000000000081526004016116f6906121a4565b60405180910390fd5b565b611709611891565b6000600160006101000a81548160ff0219169083151502179055507f5db9ee0a495bf2e6ff9c91a7834c1ba4fdd244a5e8aa4e537bd38aeae4b073aa61174d611889565b60405161175a9190611a3c565b60405180910390a1565b600060018054906101000a900473ffffffffffffffffffffffffffffffffffffffff169050816001806101000a81548173ffffffffffffffffffffffffffffffffffffffff021916908373ffffffffffffffffffffffffffffffffffffffff1602179055508173ffffffffffffffffffffffffffffffffffffffff168173ffffffffffffffffffffffffffffffffffffffff167f8be0079c531659141344cd1fd0a4f28419497f9722a3daafe3b4186f6b6457e060405160405180910390a35050565b61182f61148c565b60018060006101000a81548160ff0219169083151502179055507f62e78cea01bee320cd4e420270b5ea74000d11b0c9f74754ebdbfc544b05a258611872611889565b60405161187f9190611a3c565b60405180910390a1565b600033905090565b611899610c5f565b6118d8576040517f08c379a00000000000000000000000000000000000000000000000000000000081526004016118cf90612210565b60405180910390fd5b565b6000819050919050565b6118ed816118da565b82525050565b600060208201905061190860008301846118e4565b92915050565b600080fd5b61191c816118da565b811461192757600080fd5b50565b60008135905061193981611913565b92915050565b6000602082840312156119555761195461190e565b5b60006119638482850161192a565b91505092915050565b600073ffffffffffffffffffffffffffffffffffffffff82169050919050565b60006119978261196c565b9050919050565b6119a78161198c565b81146119b257600080fd5b50565b6000813590506119c48161199e565b92915050565b6000602082840312156119e0576119df61190e565b5b60006119ee848285016119b5565b91505092915050565b60008115159050919050565b611a0c816119f7565b82525050565b6000602082019050611a276000830184611a03565b92915050565b611a368161198c565b82525050565b6000602082019050611a516000830184611a2d565b92915050565b6000819050919050565b6000611a7c611a77611a728461196c565b611a57565b61196c565b9050919050565b6000611a8e82611a61565b9050919050565b6000611aa082611a83565b9050919050565b611ab081611a95565b82525050565b6000602082019050611acb6000830184611aa7565b92915050565b600082825260208201905092915050565b7f5265656e7472616e637947756172643a207265656e7472616e742063616c6c00600082015250565b6000611b18601f83611ad1565b9150611b2382611ae2565b602082019050919050565b60006020820190508181036000830152611b4781611b0b565b9050919050565b7f416d6f756e74206d7573742062652067726561746572207468616e2030000000600082015250565b6000611b84601d83611ad1565b9150611b8f82611b4e565b602082019050919050565b60006020820190508181036000830152611bb381611b77565b9050919050565b7f496e73756666696369656e742062616c616e6365000000000000000000000000600082015250565b6000611bf0601483611ad1565b9150611bfb82611bba565b602082019050919050565b60006020820190508181036000830152611c1f81611be3565b9050919050565b7f4e487b7100000000000000000000000000000000000000000000000000000000600052601160045260246000fd5b6000611c60826118da565b9150611c6b836118da565b9250828203905081811115611c8357611c82611c26565b5b92915050565b6000604082019050611c9e6000830185611a2d565b611cab60208301846118e4565b9392505050565b611cbb816119f7565b8114611cc657600080fd5b50565b600081519050611cd881611cb2565b92915050565b600060208284031215611cf457611cf361190e565b5b6000611d0284828501611cc9565b91505092915050565b7f5769746864726177206661696c65640000000000000000000000000000000000600082015250565b6000611d41600f83611ad1565b9150611d4c82611d0b565b602082019050919050565b60006020820190508181036000830152611d7081611d34565b9050919050565b6000611d82826118da565b9150611d8d836118da565b9250828202611d9b816118da565b91508282048414831517611db257611db1611c26565b5b5092915050565b7f4e487b7100000000000000000000000000000000000000000000000000000000600052601260045260246000fd5b6000611df3826118da565b9150611dfe836118da565b925082611e0e57611e0d611db9565b5b828204905092915050565b7f43616e6e6f74206c697175696461746500000000000000000000000000000000600082015250565b6000611e4f601083611ad1565b9150611e5a82611e19565b602082019050919050565b60006020820190508181036000830152611e7e81611e42565b9050919050565b7f5472616e73666572206661696c65640000000000000000000000000000000000600082015250565b6000611ebb600f83611ad1565b9150611ec682611e85565b602082019050919050565b60006020820190508181036000830152611eea81611eae565b9050919050565b7f526570617920616d6f756e74206578636565647320626f72726f772062616c6160008201527f6e63650000000000000000000000000000000000000000000000000000000000602082015250565b6000611f4d602383611ad1565b9150611f5882611ef1565b604082019050919050565b60006020820190508181036000830152611f7c81611f40565b9050919050565b6000606082019050611f986000830186611a2d565b611fa56020830185611a2d565b611fb260408301846118e4565b949350505050565b6000611fc5826118da565b9150611fd0836118da565b9250828201905080821115611fe857611fe7611c26565b5b92915050565b7f4578636565647320616c6c6f77656420626f72726f7720616d6f756e74000000600082015250565b6000612024601d83611ad1565b915061202f82611fee565b602082019050919050565b6000602082019050818103600083015261205381612017565b9050919050565b7f4f776e61626c653a206e6577206f776e657220697320746865207a65726f206160008201527f6464726573730000000000000000000000000000000000000000000000000000602082015250565b60006120b6602683611ad1565b91506120c18261205a565b604082019050919050565b600060208201905081810360008301526120e5816120a9565b9050919050565b7f5061757361626c653a2070617573656400000000000000000000000000000000600082015250565b6000612122601083611ad1565b915061212d826120ec565b602082019050919050565b6000602082019050818103600083015261215181612115565b9050919050565b7f4f776e61626c653a2063616c6c6572206973206e6f7420746865206f776e6572600082015250565b600061218e602083611ad1565b915061219982612158565b602082019050919050565b600060208201905081810360008301526121bd81612181565b9050919050565b7f5061757361626c653a206e6f7420706175736564000000000000000000000000600082015250565b60006121fa601483611ad1565b9150612205826121c4565b602082019050919050565b60006020820190508181036000830152612229816121ed565b905091905056fea2646970667358221220448c4fe1b9b0e1a65ed826f43958021f20ec34cbb6402b87ba41afa9ca9fd44764736f6c63430008130033",
  "linkReferences": {},
  "deployedLinkReferences": {}
}